:0B031E0009080139D9B9F9694929A97A
:04021F007F0A7E00D4
:10022300D3EF9400EE940040147D707C00ED1D70BC
:0D023300011CED4C70F7EF1F70E61E80E31C
:01024000229B
:090241007F2A7E00120258D295BA
:0D024A007F3F7E00EF1F70011EEF4E70F72A
:010257002284
:0D0304007F047E02EF1F70011EEF4E70F7A8
:0103110022C9
:10025800D3EF9400EE94004009B295EF1F70F11EA1
:0302680080EE2203
:030338000202417D
:09032A0012024112024A02024AC9
:0C0312007FB27E02120258D29502030452
:1001BE00AD07ED30E70512032A8003120338ED3048
:1001CE00E60512032A8003120338ED30E50512030B
:1001DE002A8003120338ED30E40512032A8003123D
:1001EE000338ED30E30512032A8003120338ED3095
:1001FE00E20512032A8003120338ED30E1051203E3
:10020E002A8003120338ED30E00302032A1203386A
:01021E0022BD
:0302D700120312FD
:0C02DA00AF081201BEE508F4FF0201BEEF
:0F02E6001202D7AF091201BEE509F4FF0201BEF3
:0F02F5001202D7AF0A1201BEE50AF4FF0201BEE2
:10026B001203121202DAAF0B1201BEE50BF4FF02FE
:02027B0001BEC2
:10027D001203121202DAAF0C1201BEE50CF4FF02EA
:02028D0001BEB0
:10028F001203121202DAAF0D1201BEE50DF4FF02D6
:02029F0001BE9E
:1002A1001203121202DAAF0E1201BEE50EF4FF02C2
:0202B10001BE8C
:1002B3001203121202DAAF0F1201BEE50FF4FF02AE
:0202C30001BE7A
:1002C5001203121202DAAF101201BEE510F4FF029A
:0202D50001BE68
:1000030075B0F085B0115311F0E51164F07003027F
:10001300013175B0FE85B0115311F0E51164F06044
:100023003812021F85B0115311F0E51164F06029F5
:1000330085B011E5112422600C24F0700E1202B376
:100043001202B380061202C51202C5E51164F06004
:100053000885B0115311F080F275B0FD85B01153CE
:1000630011F0E51164F0603812021F85B0115311CD
:10007300F0E51164F0602985B011E5112423600CCB
:1000830024F0700E12028F12028F80061202A11248
:1000930002A1E51164F0600885B0115311F080F2FC
:1000A30075B0FB85B0115311F0E51164F06038129F
:1000B300021F85B0115311F0E51164F0602985B07A
:1000C30011E5112425600C24F0700E12026B12024C
:1000D3006B800612027D12027DE51164F0600885D3
:1000E300B0115311F080F275B0F785B0115311F0D0
:1000F300E51164F0603812021F85B0115311F0E569
:100103001164F0602985B011E5112429600C24F0F5
:10011300700E1202E61202E680061202F51202F5D2
:0E012300E51164F0600885B0115311F080F210
:0101310022AB
:0503330012000380FB35
:03000000020132C8
:0C013200787FE4F6D8FD75811102017998
:10013E00020333E493A3F8E493A34003F68001F2A1
:10014E0008DFF48029E493A3F85407240CC8C333C2
:10015E00C4540F4420C8834004F456800146F6DF91
:10016E00E4800B010204081020408090031EE47E00
:10017E00019360BCA3FF543F30E509541FFEE49386
:10018E00A360010ECF54C025E060A840B8E493A34D
:10019E00FAE493A3F8E493A3C8C582C8CAC583CA78
:1001AE00F0A3C8C582C8CAC583CADFE9DEE780BE30
:0103290000D3
:00000001FF
