:1002CD004900340139D9B9F9694929A9C101C100D8
:0502DD004200000000DA
:10000300D3EF9400EE940040147D707C00ED1D70DE
:0D001300011CED4C70F7EF1F70E61E80E33E
:0100200022BD
:0902B6007F2A7E001202E3D295BA
:0D02BF007F3F7E00EF1F70011EEF4E70F7B5
:0102CC00220F
:0D031B007F047E02EF1F70011EEF4E70F791
:0103280022B2
:1002E300D3EF9400EE94004009B295EF1F70F11E16
:0302F30080EE2278
:03034D000202B6F3
:090335001202B61202BF0202BF5F
:0C0329007FB27E021202E3D29502031B99
:1000B200120329120341900035E0FF1200C3E0F45D
:0100C200FF3E
:1000C300AD07ED30E705120335800312034DED3024
:1000D300E605120335800312034DED30E5051203E7
:1000E30035800312034DED30E4051203358003120E
:1000F300034DED30E305120335800312034DED305C
:10010300E205120335800312034DED30E1051203BE
:1001130035800312034DED30E00302033512034D26
:0101230022B9
:03033E001203297E
:060341009000340200BB35
:060347001200B20200B238
:1003090012033E9000361200BB12033E90003602E3
:0203190000BB27
:100226001203291203419000371200BB1203291250
:0802360003419000370200BBF8
:10023E001203291203419000381200BB1203291237
:08024E0003419000380200BBDF
:100256001203291203419000391200BB120329121E
:0802660003419000390200BBC6
:10026E0012032912034190003A1200BB1203291205
:08027E00034190003A0200BBAD
:1002860012032912034190003B1200BB12032912EC
:08029600034190003B0200BB94
:10029E0012032912034190003C1200BB12032912D3
:0802AE00034190003C0200BB7B
:03002300020124B3
:0D012400C0E0C083C082C0D075D000C0070D
:10013100309852C298AF99EFB42409D201900000CF
:10014100E4F0A3F030010F900001E02402F582E415
:100151003400F583EFF0EFB42304D200C201900024
:1001610001E004F07006900000E004F0C39000018B
:10017100E09432900000E0648094804008E4F0A3B1
:05018100F0C201C20004
:0B018600D007D0D0D082D083D0E03270
:1002F600759850438920758DFD758BFDD28ED2AFD2
:03030600D2AC2254
:100191001202F63000FD900003E024D0B4080050B4
:1001A100459001A9F82828730201C10201C6020184
:1001B100CB0201D00201D50201DA0201DF0201E422
:1001C1001202568021120286801C1202268017120A
:1001D1000309801212029E800D12023E8008120253
:1001E1006E8003120347C2007E007F327D007B01D7
:0901F1007A0079021201FA809AE9
:03000000020026D5
:0C002600787FE4F6D8FD75812002006DA3
:1001FA00EF4E6012EF60010EEDBB010B89828A831C
:10020A00F0A3DFFCDEFA2289F05007F709DFFCA928
:0C021A00F022BBFEFCF309DFFCA9F0227F
:10003200020191E493A3F8E493A34003F68001F252
:1000420008DFF48029E493A3F85407240CC8C333CF
:10005200C4540F4420C8834004F456800146F6DF9E
:10006200E4800B01020408102040809002CDE47E5F
:10007200019360BCA3FF543F30E509541FFEE49393
:10008200A360010ECF54C025E060A840B8E493A35A
:10009200FAE493A3F8E493A3C8C582C8CAC583CA85
:1000A200F0A3C8C582C8CAC583CADFE9DEE780BE3D
:0102E200001B
:00000001FF
